{
  "address": "0x11099d35C311b878bC65B1d3bC9E450363daa49f",
  "abi": [
    {
      "inputs": [
        {
          "internalType": "address",
          "name": "to",
          "type": "address"
        },
        {
          "internalType": "string",
          "name": "baseUri_",
          "type": "string"
        }
      ],
      "stateMutability": "nonpayable",
      "type": "constructor"
    },
    {
      "anonymous": false,
      "inputs": [
        {
          "indexed": true,
          "internalType": "address",
          "name": "owner",
          "type": "address"
        },
        {
          "indexed": true,
          "internalType": "address",
          "name": "approved",
          "type": "address"
        },
        {
          "indexed": true,
          "internalType": "uint256",
          "name": "tokenId",
          "type": "uint256"
        }
      ],
      "name": "Approval",
      "type": "event"
    },
    {
      "anonymous": false,
      "inputs": [
        {
          "indexed": true,
          "internalType": "address",
          "name": "owner",
          "type": "address"
        },
        {
          "indexed": true,
          "internalType": "address",
          "name": "operator",
          "type": "address"
        },
        {
          "indexed": false,
          "internalType": "bool",
          "name": "approved",
          "type": "bool"
        }
      ],
      "name": "ApprovalForAll",
      "type": "event"
    },
    {
      "anonymous": false,
      "inputs": [
        {
          "indexed": true,
          "internalType": "address",
          "name": "destroyer",
          "type": "address"
        }
      ],
      "name": "Destroyed",
      "type": "event"
    },
    {
      "anonymous": false,
      "inputs": [
        {
          "indexed": true,
          "internalType": "address",
          "name": "from",
          "type": "address"
        },
        {
          "indexed": true,
          "internalType": "address",
          "name": "to",
          "type": "address"
        },
        {
          "indexed": true,
          "internalType": "uint256",
          "name": "tokenId",
          "type": "uint256"
        }
      ],
      "name": "Transfer",
      "type": "event"
    },
    {
      "inputs": [],
      "name": "admin",
      "outputs": [
        {
          "internalType": "address",
          "name": "",
          "type": "address"
        }
      ],
      "stateMutability": "view",
      "type": "function"
    },
    {
      "inputs": [
        {
          "internalType": "address",
          "name": "to",
          "type": "address"
        },
        {
          "internalType": "uint256",
          "name": "tokenId",
          "type": "uint256"
        }
      ],
      "name": "approve",
      "outputs": [],
      "stateMutability": "nonpayable",
      "type": "function"
    },
    {
      "inputs": [
        {
          "internalType": "address",
          "name": "owner",
          "type": "address"
        }
      ],
      "name": "balanceOf",
      "outputs": [
        {
          "internalType": "uint256",
          "name": "",
          "type": "uint256"
        }
      ],
      "stateMutability": "view",
      "type": "function"
    },
    {
      "inputs": [],
      "name": "baseUri",
      "outputs": [
        {
          "internalType": "string",
          "name": "",
          "type": "string"
        }
      ],
      "stateMutability": "view",
      "type": "function"
    },
    {
      "inputs": [],
      "name": "destroy",
      "outputs": [],
      "stateMutability": "nonpayable",
      "type": "function"
    },
    {
      "inputs": [
        {
          "internalType": "uint256",
          "name": "tokenId",
          "type": "uint256"
        }
      ],
      "name": "getApproved",
      "outputs": [
        {
          "internalType": "address",
          "name": "",
          "type": "address"
        }
      ],
      "stateMutability": "view",
      "type": "function"
    },
    {
      "inputs": [
        {
          "internalType": "address",
          "name": "owner",
          "type": "address"
        },
        {
          "internalType": "address",
          "name": "operator",
          "type": "address"
        }
      ],
      "name": "isApprovedForAll",
      "outputs": [
        {
          "internalType": "bool",
          "name": "",
          "type": "bool"
        }
      ],
      "stateMutability": "view",
      "type": "function"
    },
    {
      "inputs": [],
      "name": "name",
      "outputs": [
        {
          "internalType": "string",
          "name": "",
          "type": "string"
        }
      ],
      "stateMutability": "view",
      "type": "function"
    },
    {
      "inputs": [
        {
          "internalType": "uint256",
          "name": "tokenId",
          "type": "uint256"
        }
      ],
      "name": "ownerOf",
      "outputs": [
        {
          "internalType": "address",
          "name": "",
          "type": "address"
        }
      ],
      "stateMutability": "view",
      "type": "function"
    },
    {
      "inputs": [
        {
          "internalType": "address",
          "name": "from",
          "type": "address"
        },
        {
          "internalType": "address",
          "name": "to",
          "type": "address"
        },
        {
          "internalType": "uint256",
          "name": "tokenId",
          "type": "uint256"
        }
      ],
      "name": "safeTransferFrom",
      "outputs": [],
      "stateMutability": "nonpayable",
      "type": "function"
    },
    {
      "inputs": [
        {
          "internalType": "address",
          "name": "from",
          "type": "address"
        },
        {
          "internalType": "address",
          "name": "to",
          "type": "address"
        },
        {
          "internalType": "uint256",
          "name": "tokenId",
          "type": "uint256"
        },
        {
          "internalType": "bytes",
          "name": "data",
          "type": "bytes"
        }
      ],
      "name": "safeTransferFrom",
      "outputs": [],
      "stateMutability": "nonpayable",
      "type": "function"
    },
    {
      "inputs": [
        {
          "internalType": "address",
          "name": "operator",
          "type": "address"
        },
        {
          "internalType": "bool",
          "name": "approved",
          "type": "bool"
        }
      ],
      "name": "setApprovalForAll",
      "outputs": [],
      "stateMutability": "nonpayable",
      "type": "function"
    },
    {
      "inputs": [
        {
          "internalType": "bytes4",
          "name": "interfaceId",
          "type": "bytes4"
        }
      ],
      "name": "supportsInterface",
      "outputs": [
        {
          "internalType": "bool",
          "name": "",
          "type": "bool"
        }
      ],
      "stateMutability": "view",
      "type": "function"
    },
    {
      "inputs": [],
      "name": "symbol",
      "outputs": [
        {
          "internalType": "string",
          "name": "",
          "type": "string"
        }
      ],
      "stateMutability": "view",
      "type": "function"
    },
    {
      "inputs": [
        {
          "internalType": "uint256",
          "name": "tokenId",
          "type": "uint256"
        }
      ],
      "name": "tokenURI",
      "outputs": [
        {
          "internalType": "string",
          "name": "",
          "type": "string"
        }
      ],
      "stateMutability": "view",
      "type": "function"
    },
    {
      "inputs": [
        {
          "internalType": "address",
          "name": "from",
          "type": "address"
        },
        {
          "internalType": "address",
          "name": "to",
          "type": "address"
        },
        {
          "internalType": "uint256",
          "name": "tokenId",
          "type": "uint256"
        }
      ],
      "name": "transferFrom",
      "outputs": [],
      "stateMutability": "nonpayable",
      "type": "function"
    }
  ],
  "transactionHash": "0x0afda36f2cdfd02cb1f09f1099bc6d98dab86e8656654207e2e637eb2bc6e135",
  "args": [
    "0xFACEa1fe046F3B7612AbA28F812eEf9390F1eac5",
    "ipfs://bafybeibr3wrnw3my5xzb6epmt252y5kfpf5uquinese76d53hlbqkkaeum/"
  ],
  "numDeployments": 1,
  "solcInputHash": "f4d411316daeb89b192826d341acc8bc",
  "bytecode": "0x60806040523480156200001157600080fd5b50604051620027d9380380620027d9833981016040819052620000349162000915565b604051806040016040528060118152602001705468697320497320557320e29da4efb88f60781b8152506040518060400160405280600e81526020016d5468697349735573e29da4efb88f60901b815250816000908162000096919062000a7e565b506001620000a5828262000a7e565b5060079150620000b89050828262000a7e565b50600880546001600160a01b0319163317905560006200015b83620000dd8362000b60565b92508260405180604001604052806007815260200166416c6c2d526f7760c81b81525060405180604001604052806012815260200171416c6c206f6620557320696e206120726f7760701b8152506040518060400160405280600b81526020016a616c6c2d726f772e706e6760a81b8152506200041360201b60201c565b620001f4836200016b8362000b60565b92508260405180604001604052806007815260200166105b1b0b50995960ca1b8152506040518060400160405280601681526020017f416c6c206f66205573206368696c6c20696e20626564000000000000000000008152506040518060400160405280600b81526020016a616c6c2d6265642e706e6760a81b8152506200041360201b60201c565b6200028f83620002048362000b60565b92508260405180604001604052806008815260200167416c6c2d5061777360c01b8152506040518060400160405280601381526020017f416c6c206f66205573206a757374206d656f77000000000000000000000000008152506040518060400160405280600c81526020016b616c6c2d6d656f772e706e6760a01b8152506200041360201b60201c565b62000309836200029f8362000b60565b925082604051806040016040528060038152602001622330b760e91b8152506040518060400160405280600681526020016546616e6e792160d01b8152506040518060400160405280600781526020016666616e2e706e6760c81b8152506200041360201b60201c565b6200038d83620003198362000b60565b925082604051806040016040528060078152602001665061747269636b60c81b815250604051806040016040528060088152602001675061747269636b2160c01b8152506040518060400160405280600b81526020016a7061747269636b2e706e6760a81b8152506200041360201b60201c565b6200040a836200039d8362000b60565b925082604051806040016040528060048152602001635461726f60e01b815250604051806040016040528060078152602001665461726f6c6c2160c81b815250604051806040016040528060088152602001677461726f2e706e6760c01b8152506200041360201b60201c565b50505062000c37565b6200042a85856200049b60201b62000b481760201c565b60408051606081018252848152602080820185905281830184905260008781526006909152919091208151819062000463908262000a7e565b50602082015160018201906200047a908262000a7e565b506040820151600282019062000491908262000a7e565b5050505050505050565b620004bd828260405180602001604052806000815250620004c160201b60201c565b5050565b620004cd83836200053d565b620004dc6000848484620006de565b620005385760405162461bcd60e51b81526020600482015260326024820152600080516020620027b983398151915260448201527131b2b4bb32b91034b6b83632b6b2b73a32b960711b60648201526084015b60405180910390fd5b505050565b6001600160a01b038216620005955760405162461bcd60e51b815260206004820181905260248201527f4552433732313a206d696e7420746f20746865207a65726f206164647265737360448201526064016200052f565b6000818152600260205260409020546001600160a01b031615620005fc5760405162461bcd60e51b815260206004820152601c60248201527f4552433732313a20746f6b656e20616c7265616479206d696e7465640000000060448201526064016200052f565b6200060c6000838360016200083a565b6000818152600260205260409020546001600160a01b031615620006735760405162461bcd60e51b815260206004820152601c60248201527f4552433732313a20746f6b656e20616c7265616479206d696e7465640000000060448201526064016200052f565b6001600160a01b038216600081815260036020908152604080832080546001019055848352600290915280822080546001600160a01b0319168417905551839291907fddf252ad1be2c89b69c2b068fc378daa952ba7f163c4a11628f55a4df523b3ef908290a45050565b6000620006ff846001600160a01b0316620008ca60201b62000b621760201c565b156200082e57604051630a85bd0160e11b81526001600160a01b0385169063150b7a02906200073990339089908890889060040162000b7c565b6020604051808303816000875af192505050801562000777575060408051601f3d908101601f19168201909252620007749181019062000bd2565b60015b62000813573d808015620007a8576040519150601f19603f3d011682016040523d82523d6000602084013e620007ad565b606091505b5080516000036200080b5760405162461bcd60e51b81526020600482015260326024820152600080516020620027b983398151915260448201527131b2b4bb32b91034b6b83632b6b2b73a32b960711b60648201526084016200052f565b805181602001fd5b6001600160e01b031916630a85bd0160e11b14905062000832565b5060015b949350505050565b6001811115620008c4576001600160a01b0384161562000884576001600160a01b038416600090815260036020526040812080548392906200087e90849062000c05565b90915550505b6001600160a01b03831615620008c4576001600160a01b03831660009081526003602052604081208054839290620008be90849062000c21565b90915550505b50505050565b6001600160a01b03163b151590565b634e487b7160e01b600052604160045260246000fd5b60005b838110156200090c578181015183820152602001620008f2565b50506000910152565b600080604083850312156200092957600080fd5b82516001600160a01b03811681146200094157600080fd5b60208401519092506001600160401b03808211156200095f57600080fd5b818501915085601f8301126200097457600080fd5b815181811115620009895762000989620008d9565b604051601f8201601f19908116603f01168101908382118183101715620009b457620009b4620008d9565b81604052828152886020848701011115620009ce57600080fd5b620009e1836020830160208801620008ef565b80955050505050509250929050565b600181811c9082168062000a0557607f821691505b60208210810362000a2657634e487b7160e01b600052602260045260246000fd5b50919050565b601f8211156200053857600081815260208120601f850160051c8101602086101562000a555750805b601f850160051c820191505b8181101562000a765782815560010162000a61565b505050505050565b81516001600160401b0381111562000a9a5762000a9a620008d9565b62000ab28162000aab8454620009f0565b8462000a2c565b602080601f83116001811462000aea576000841562000ad15750858301515b600019600386901b1c1916600185901b17855562000a76565b600085815260208120601f198616915b8281101562000b1b5788860151825594840194600190910190840162000afa565b508582101562000b3a5787850151600019600388901b60f8161c191681555b5050505050600190811b01905550565b634e487b7160e01b600052601160045260246000fd5b60006001820162000b755762000b7562000b4a565b5060010190565b600060018060a01b03808716835280861660208401525083604083015260806060830152825180608084015262000bbb8160a0850160208701620008ef565b601f01601f19169190910160a00195945050505050565b60006020828403121562000be557600080fd5b81516001600160e01b03198116811462000bfe57600080fd5b9392505050565b8181038181111562000c1b5762000c1b62000b4a565b92915050565b8082018082111562000c1b5762000c1b62000b4a565b611b728062000c476000396000f3fe608060405234801561001057600080fd5b50600436106101005760003560e01c806383197ef011610097578063b88d4fde11610066578063b88d4fde14610207578063c87b56dd1461021a578063e985e9c51461022d578063f851a4401461026957600080fd5b806383197ef0146101dc57806395d89b41146101e45780639abc8320146101ec578063a22cb465146101f457600080fd5b806323b872dd116100d357806323b872dd1461018257806342842e0e146101955780636352211e146101a857806370a08231146101bb57600080fd5b806301ffc9a71461010557806306fdde031461012d578063081812fc14610142578063095ea7b31461016d575b600080fd5b610118610113366004611592565b61027c565b60405190151581526020015b60405180910390f35b610135610319565b6040516101249190611606565b610155610150366004611619565b6103ab565b6040516001600160a01b039091168152602001610124565b61018061017b36600461164e565b6103d2565b005b610180610190366004611678565b610526565b6101806101a3366004611678565b61059d565b6101556101b6366004611619565b6105b8565b6101ce6101c93660046116b4565b61061d565b604051908152602001610124565b6101806106b7565b61013561074a565b610135610759565b6101806102023660046116cf565b6107e7565b610180610215366004611721565b6107f6565b610135610228366004611619565b610874565b61011861023b3660046117fd565b6001600160a01b03918216600090815260056020908152604080832093909416825291909152205460ff1690565b600854610155906001600160a01b031681565b60006001600160e01b031982167f80ac58cd0000000000000000000000000000000000000000000000000000000014806102df57506001600160e01b031982167f5b5e139f00000000000000000000000000000000000000000000000000000000145b8061031357507f01ffc9a7000000000000000000000000000000000000000000000000000000006001600160e01b03198316145b92915050565b60606000805461032890611830565b80601f016020809104026020016040519081016040528092919081815260200182805461035490611830565b80156103a15780601f10610376576101008083540402835291602001916103a1565b820191906000526020600020905b81548152906001019060200180831161038457829003601f168201915b5050505050905090565b60006103b682610b71565b506000908152600460205260409020546001600160a01b031690565b60006103dd826105b8565b9050806001600160a01b0316836001600160a01b03160361046b5760405162461bcd60e51b815260206004820152602160248201527f4552433732313a20617070726f76616c20746f2063757272656e74206f776e6560448201527f720000000000000000000000000000000000000000000000000000000000000060648201526084015b60405180910390fd5b336001600160a01b03821614806104a557506001600160a01b038116600090815260056020908152604080832033845290915290205460ff165b6105175760405162461bcd60e51b815260206004820152603d60248201527f4552433732313a20617070726f76652063616c6c6572206973206e6f7420746f60448201527f6b656e206f776e6572206f7220617070726f76656420666f7220616c6c0000006064820152608401610462565b6105218383610bd8565b505050565b6105303382610c53565b6105925760405162461bcd60e51b815260206004820152602d60248201527f4552433732313a2063616c6c6572206973206e6f7420746f6b656e206f776e6560448201526c1c881bdc88185c1c1c9bdd9959609a1b6064820152608401610462565b610521838383610cd2565b610521838383604051806020016040528060008152506107f6565b6000818152600260205260408120546001600160a01b0316806103135760405162461bcd60e51b815260206004820152601860248201527f4552433732313a20696e76616c696420746f6b656e20494400000000000000006044820152606401610462565b60006001600160a01b03821661069b5760405162461bcd60e51b815260206004820152602960248201527f4552433732313a2061646472657373207a65726f206973206e6f74206120766160448201527f6c6964206f776e657200000000000000000000000000000000000000000000006064820152608401610462565b506001600160a01b031660009081526003602052604090205490565b6008546001600160a01b031633146107115760405162461bcd60e51b815260206004820152600d60248201527f6e6f74207468652061646d696e000000000000000000000000000000000000006044820152606401610462565b60405133907f7dec311f70bce33f6997a1cc140bcb6149f9ee83d6be656e848b00d170c9820090600090a26008546001600160a01b0316ff5b60606001805461032890611830565b6007805461076690611830565b80601f016020809104026020016040519081016040528092919081815260200182805461079290611830565b80156107df5780601f106107b4576101008083540402835291602001916107df565b820191906000526020600020905b8154815290600101906020018083116107c257829003601f168201915b505050505081565b6107f2338383610ee5565b5050565b6108003383610c53565b6108625760405162461bcd60e51b815260206004820152602d60248201527f4552433732313a2063616c6c6572206973206e6f7420746f6b656e206f776e6560448201526c1c881bdc88185c1c1c9bdd9959609a1b6064820152608401610462565b61086e84848484610fb3565b50505050565b606061087f82610b71565b60006007805461088e90611830565b80601f01602080910402602001604051908101604052809291908181526020018280546108ba90611830565b80156109075780601f106108dc57610100808354040283529160200191610907565b820191906000526020600020905b8154815290600101906020018083116108ea57829003601f168201915b5050505050905060006006600085815260200190815260200160002060405180606001604052908160008201805461093e90611830565b80601f016020809104026020016040519081016040528092919081815260200182805461096a90611830565b80156109b75780601f1061098c576101008083540402835291602001916109b7565b820191906000526020600020905b81548152906001019060200180831161099a57829003601f168201915b505050505081526020016001820180546109d090611830565b80601f01602080910402602001604051908101604052809291908181526020018280546109fc90611830565b8015610a495780601f10610a1e57610100808354040283529160200191610a49565b820191906000526020600020905b815481529060010190602001808311610a2c57829003601f168201915b50505050508152602001600282018054610a6290611830565b80601f0160208091040260200160405190810160405280929190818152602001828054610a8e90611830565b8015610adb5780601f10610ab057610100808354040283529160200191610adb565b820191906000526020600020905b815481529060010190602001808311610abe57829003601f168201915b5050505050815250509050610b2081600001518260200151848460400151604051602001610b0c949392919061186a565b604051602081830303815290604052611031565b604051602001610b3091906119e9565b60405160208183030381529060405292505050919050565b6107f2828260405180602001604052806000815250611184565b6001600160a01b03163b151590565b6000818152600260205260409020546001600160a01b0316610bd55760405162461bcd60e51b815260206004820152601860248201527f4552433732313a20696e76616c696420746f6b656e20494400000000000000006044820152606401610462565b50565b6000818152600460205260409020805473ffffffffffffffffffffffffffffffffffffffff19166001600160a01b0384169081179091558190610c1a826105b8565b6001600160a01b03167f8c5be1e5ebec7d5bd14f71427d1e84f3dd0314c0f7b2291e5b200ac8c7c3b92560405160405180910390a45050565b600080610c5f836105b8565b9050806001600160a01b0316846001600160a01b03161480610ca657506001600160a01b0380821660009081526005602090815260408083209388168352929052205460ff165b80610cca5750836001600160a01b0316610cbf846103ab565b6001600160a01b0316145b949350505050565b826001600160a01b0316610ce5826105b8565b6001600160a01b031614610d495760405162461bcd60e51b815260206004820152602560248201527f4552433732313a207472616e736665722066726f6d20696e636f72726563742060448201526437bbb732b960d91b6064820152608401610462565b6001600160a01b038216610dc45760405162461bcd60e51b8152602060048201526024808201527f4552433732313a207472616e7366657220746f20746865207a65726f2061646460448201527f72657373000000000000000000000000000000000000000000000000000000006064820152608401610462565b610dd18383836001611202565b826001600160a01b0316610de4826105b8565b6001600160a01b031614610e485760405162461bcd60e51b815260206004820152602560248201527f4552433732313a207472616e736665722066726f6d20696e636f72726563742060448201526437bbb732b960d91b6064820152608401610462565b6000818152600460209081526040808320805473ffffffffffffffffffffffffffffffffffffffff199081169091556001600160a01b0387811680865260038552838620805460001901905590871680865283862080546001019055868652600290945282852080549092168417909155905184937fddf252ad1be2c89b69c2b068fc378daa952ba7f163c4a11628f55a4df523b3ef91a4505050565b816001600160a01b0316836001600160a01b031603610f465760405162461bcd60e51b815260206004820152601960248201527f4552433732313a20617070726f766520746f2063616c6c6572000000000000006044820152606401610462565b6001600160a01b03838116600081815260056020908152604080832094871680845294825291829020805460ff191686151590811790915591519182527f17307eab39ab6107e8899845ad3d59bd9653f200f220920489ca2b5937696c31910160405180910390a3505050565b610fbe848484610cd2565b610fca8484848461128a565b61086e5760405162461bcd60e51b815260206004820152603260248201527f4552433732313a207472616e7366657220746f206e6f6e20455243373231526560448201527131b2b4bb32b91034b6b83632b6b2b73a32b960711b6064820152608401610462565b6060815160000361105057505060408051602081019091526000815290565b6000604051806060016040528060408152602001611afd604091399050600060038451600261107f9190611a44565b6110899190611a57565b611094906004611a79565b67ffffffffffffffff8111156110ac576110ac61170b565b6040519080825280601f01601f1916602001820160405280156110d6576020820181803683370190505b509050600182016020820185865187015b80821015611142576003820191508151603f8160121c168501518453600184019350603f81600c1c168501518453600184019350603f8160061c168501518453600184019350603f81168501518453506001830192506110e7565b505060038651066001811461115e576002811461117157611179565b603d6001830353603d6002830353611179565b603d60018303535b509195945050505050565b61118e83836113d6565b61119b600084848461128a565b6105215760405162461bcd60e51b815260206004820152603260248201527f4552433732313a207472616e7366657220746f206e6f6e20455243373231526560448201527131b2b4bb32b91034b6b83632b6b2b73a32b960711b6064820152608401610462565b600181111561086e576001600160a01b03841615611248576001600160a01b03841660009081526003602052604081208054839290611242908490611a90565b90915550505b6001600160a01b0383161561086e576001600160a01b0383166000908152600360205260408120805483929061127f908490611a44565b909155505050505050565b60006001600160a01b0384163b156113cb57604051630a85bd0160e11b81526001600160a01b0385169063150b7a02906112ce903390899088908890600401611aa3565b6020604051808303816000875af1925050508015611309575060408051601f3d908101601f1916820190925261130691810190611adf565b60015b6113b1573d808015611337576040519150601f19603f3d011682016040523d82523d6000602084013e61133c565b606091505b5080516000036113a95760405162461bcd60e51b815260206004820152603260248201527f4552433732313a207472616e7366657220746f206e6f6e20455243373231526560448201527131b2b4bb32b91034b6b83632b6b2b73a32b960711b6064820152608401610462565b805181602001fd5b6001600160e01b031916630a85bd0160e11b149050610cca565b506001949350505050565b6001600160a01b03821661142c5760405162461bcd60e51b815260206004820181905260248201527f4552433732313a206d696e7420746f20746865207a65726f20616464726573736044820152606401610462565b6000818152600260205260409020546001600160a01b0316156114915760405162461bcd60e51b815260206004820152601c60248201527f4552433732313a20746f6b656e20616c7265616479206d696e746564000000006044820152606401610462565b61149f600083836001611202565b6000818152600260205260409020546001600160a01b0316156115045760405162461bcd60e51b815260206004820152601c60248201527f4552433732313a20746f6b656e20616c7265616479206d696e746564000000006044820152606401610462565b6001600160a01b0382166000818152600360209081526040808320805460010190558483526002909152808220805473ffffffffffffffffffffffffffffffffffffffff19168417905551839291907fddf252ad1be2c89b69c2b068fc378daa952ba7f163c4a11628f55a4df523b3ef908290a45050565b6001600160e01b031981168114610bd557600080fd5b6000602082840312156115a457600080fd5b81356115af8161157c565b9392505050565b60005b838110156115d15781810151838201526020016115b9565b50506000910152565b600081518084526115f28160208601602086016115b6565b601f01601f19169290920160200192915050565b6020815260006115af60208301846115da565b60006020828403121561162b57600080fd5b5035919050565b80356001600160a01b038116811461164957600080fd5b919050565b6000806040838503121561166157600080fd5b61166a83611632565b946020939093013593505050565b60008060006060848603121561168d57600080fd5b61169684611632565b92506116a460208501611632565b9150604084013590509250925092565b6000602082840312156116c657600080fd5b6115af82611632565b600080604083850312156116e257600080fd5b6116eb83611632565b91506020830135801515811461170057600080fd5b809150509250929050565b634e487b7160e01b600052604160045260246000fd5b6000806000806080858703121561173757600080fd5b61174085611632565b935061174e60208601611632565b925060408501359150606085013567ffffffffffffffff8082111561177257600080fd5b818701915087601f83011261178657600080fd5b8135818111156117985761179861170b565b604051601f8201601f19908116603f011681019083821181831017156117c0576117c061170b565b816040528281528a60208487010111156117d957600080fd5b82602086016020830137600060208483010152809550505050505092959194509250565b6000806040838503121561181057600080fd5b61181983611632565b915061182760208401611632565b90509250929050565b600181811c9082168061184457607f821691505b60208210810361186457634e487b7160e01b600052602260045260246000fd5b50919050565b7f7b0000000000000000000000000000000000000000000000000000000000000081527f226e616d65223a202200000000000000000000000000000000000000000000006001820152600085516118c881600a850160208a016115b6565b80830190507f222c20000000000000000000000000000000000000000000000000000000000080600a8301527f226465736372697074696f6e223a202200000000000000000000000000000000600d830152865161192d81601d850160208b016115b6565b80830192505080601d830152507f22696d616765223a2022000000000000000000000000000000000000000000006020820152845161197381602a8401602089016115b6565b845191019061198981602a8401602088016115b6565b7f22000000000000000000000000000000000000000000000000000000000000009101602a8101919091527f7d00000000000000000000000000000000000000000000000000000000000000602b820152602c8101979650505050505050565b7f646174613a6170706c69636174696f6e2f6a736f6e3b6261736536342c000000815260008251611a2181601d8501602087016115b6565b91909101601d0192915050565b634e487b7160e01b600052601160045260246000fd5b8082018082111561031357610313611a2e565b600082611a7457634e487b7160e01b600052601260045260246000fd5b500490565b808202811582820484141761031357610313611a2e565b8181038181111561031357610313611a2e565b60006001600160a01b03808716835280861660208401525083604083015260806060830152611ad560808301846115da565b9695505050505050565b600060208284031215611af157600080fd5b81516115af8161157c56fe4142434445464748494a4b4c4d4e4f505152535455565758595a6162636465666768696a6b6c6d6e6f707172737475767778797a303132333435363738392b2fa264697066735822122032b938155659e470564e3f50661675b1871e1d2d481cc7cb8a521fa1b8d8a9e664736f6c634300081100334552433732313a207472616e7366657220746f206e6f6e204552433732315265",
  "devdoc": {
    "author": "suiiii",
    "kind": "dev",
    "methods": {
      "approve(address,uint256)": {
        "details": "See {IERC721-approve}."
      },
      "balanceOf(address)": {
        "details": "See {IERC721-balanceOf}."
      },
      "getApproved(uint256)": {
        "details": "See {IERC721-getApproved}."
      },
      "isApprovedForAll(address,address)": {
        "details": "See {IERC721-isApprovedForAll}."
      },
      "name()": {
        "details": "See {IERC721Metadata-name}."
      },
      "ownerOf(uint256)": {
        "details": "See {IERC721-ownerOf}."
      },
      "safeTransferFrom(address,address,uint256)": {
        "details": "See {IERC721-safeTransferFrom}."
      },
      "safeTransferFrom(address,address,uint256,bytes)": {
        "details": "See {IERC721-safeTransferFrom}."
      },
      "setApprovalForAll(address,bool)": {
        "details": "See {IERC721-setApprovalForAll}."
      },
      "supportsInterface(bytes4)": {
        "details": "See {IERC165-supportsInterface}."
      },
      "symbol()": {
        "details": "See {IERC721Metadata-symbol}."
      },
      "tokenURI(uint256)": {
        "details": "See {IERC721Metadata-tokenURI}."
      },
      "transferFrom(address,address,uint256)": {
        "details": "See {IERC721-transferFrom}."
      }
    },
    "title": "ThisIsUs NFT",
    "version": 1
  },
  "userdoc": {
    "kind": "user",
    "methods": {},
    "notice": "Simple profile picture NFT for fun",
    "version": 1
  },
  "storageLayout": {
    "storage": [
      {
        "astId": 25,
        "contract": "contracts/ThisIsUs.sol:ThisIsUs",
        "label": "_name",
        "offset": 0,
        "slot": "0",
        "type": "t_string_storage"
      },
      {
        "astId": 27,
        "contract": "contracts/ThisIsUs.sol:ThisIsUs",
        "label": "_symbol",
        "offset": 0,
        "slot": "1",
        "type": "t_string_storage"
      },
      {
        "astId": 31,
        "contract": "contracts/ThisIsUs.sol:ThisIsUs",
        "label": "_owners",
        "offset": 0,
        "slot": "2",
        "type": "t_mapping(t_uint256,t_address)"
      },
      {
        "astId": 35,
        "contract": "contracts/ThisIsUs.sol:ThisIsUs",
        "label": "_balances",
        "offset": 0,
        "slot": "3",
        "type": "t_mapping(t_address,t_uint256)"
      },
      {
        "astId": 39,
        "contract": "contracts/ThisIsUs.sol:ThisIsUs",
        "label": "_tokenApprovals",
        "offset": 0,
        "slot": "4",
        "type": "t_mapping(t_uint256,t_address)"
      },
      {
        "astId": 45,
        "contract": "contracts/ThisIsUs.sol:ThisIsUs",
        "label": "_operatorApprovals",
        "offset": 0,
        "slot": "5",
        "type": "t_mapping(t_address,t_mapping(t_address,t_bool))"
      },
      {
        "astId": 2605,
        "contract": "contracts/ThisIsUs.sol:ThisIsUs",
        "label": "tokenDetails",
        "offset": 0,
        "slot": "6",
        "type": "t_mapping(t_uint256,t_struct(TokenDetails)2596_storage)"
      },
      {
        "astId": 2607,
        "contract": "contracts/ThisIsUs.sol:ThisIsUs",
        "label": "baseUri",
        "offset": 0,
        "slot": "7",
        "type": "t_string_storage"
      },
      {
        "astId": 2609,
        "contract": "contracts/ThisIsUs.sol:ThisIsUs",
        "label": "admin",
        "offset": 0,
        "slot": "8",
        "type": "t_address"
      }
    ],
    "types": {
      "t_address": {
        "encoding": "inplace",
        "label": "address",
        "numberOfBytes": "20"
      },
      "t_bool": {
        "encoding": "inplace",
        "label": "bool",
        "numberOfBytes": "1"
      },
      "t_mapping(t_address,t_bool)": {
        "encoding": "mapping",
        "key": "t_address",
        "label": "mapping(address => bool)",
        "numberOfBytes": "32",
        "value": "t_bool"
      },
      "t_mapping(t_address,t_mapping(t_address,t_bool))": {
        "encoding": "mapping",
        "key": "t_address",
        "label": "mapping(address => mapping(address => bool))",
        "numberOfBytes": "32",
        "value": "t_mapping(t_address,t_bool)"
      },
      "t_mapping(t_address,t_uint256)": {
        "encoding": "mapping",
        "key": "t_address",
        "label": "mapping(address => uint256)",
        "numberOfBytes": "32",
        "value": "t_uint256"
      },
      "t_mapping(t_uint256,t_address)": {
        "encoding": "mapping",
        "key": "t_uint256",
        "label": "mapping(uint256 => address)",
        "numberOfBytes": "32",
        "value": "t_address"
      },
      "t_mapping(t_uint256,t_struct(TokenDetails)2596_storage)": {
        "encoding": "mapping",
        "key": "t_uint256",
        "label": "mapping(uint256 => struct ThisIsUs.TokenDetails)",
        "numberOfBytes": "32",
        "value": "t_struct(TokenDetails)2596_storage"
      },
      "t_string_storage": {
        "encoding": "bytes",
        "label": "string",
        "numberOfBytes": "32"
      },
      "t_struct(TokenDetails)2596_storage": {
        "encoding": "inplace",
        "label": "struct ThisIsUs.TokenDetails",
        "members": [
          {
            "astId": 2591,
            "contract": "contracts/ThisIsUs.sol:ThisIsUs",
            "label": "name",
            "offset": 0,
            "slot": "0",
            "type": "t_string_storage"
          },
          {
            "astId": 2593,
            "contract": "contracts/ThisIsUs.sol:ThisIsUs",
            "label": "description",
            "offset": 0,
            "slot": "1",
            "type": "t_string_storage"
          },
          {
            "astId": 2595,
            "contract": "contracts/ThisIsUs.sol:ThisIsUs",
            "label": "fileName",
            "offset": 0,
            "slot": "2",
            "type": "t_string_storage"
          }
        ],
        "numberOfBytes": "96"
      },
      "t_uint256": {
        "encoding": "inplace",
        "label": "uint256",
        "numberOfBytes": "32"
      }
    }
  }
}