{
  "address": "0x87C081233bdC99dA7A977AC7e0EAEbCD5b88eC4c",
  "abi": [
    {
      "inputs": [
        {
          "internalType": "address",
          "name": "to",
          "type": "address"
        },
        {
          "internalType": "string",
          "name": "baseUri_",
          "type": "string"
        }
      ],
      "stateMutability": "nonpayable",
      "type": "constructor"
    },
    {
      "anonymous": false,
      "inputs": [
        {
          "indexed": true,
          "internalType": "address",
          "name": "owner",
          "type": "address"
        },
        {
          "indexed": true,
          "internalType": "address",
          "name": "approved",
          "type": "address"
        },
        {
          "indexed": true,
          "internalType": "uint256",
          "name": "tokenId",
          "type": "uint256"
        }
      ],
      "name": "Approval",
      "type": "event"
    },
    {
      "anonymous": false,
      "inputs": [
        {
          "indexed": true,
          "internalType": "address",
          "name": "owner",
          "type": "address"
        },
        {
          "indexed": true,
          "internalType": "address",
          "name": "operator",
          "type": "address"
        },
        {
          "indexed": false,
          "internalType": "bool",
          "name": "approved",
          "type": "bool"
        }
      ],
      "name": "ApprovalForAll",
      "type": "event"
    },
    {
      "anonymous": false,
      "inputs": [
        {
          "indexed": true,
          "internalType": "address",
          "name": "from",
          "type": "address"
        },
        {
          "indexed": true,
          "internalType": "address",
          "name": "to",
          "type": "address"
        },
        {
          "indexed": true,
          "internalType": "uint256",
          "name": "tokenId",
          "type": "uint256"
        }
      ],
      "name": "Transfer",
      "type": "event"
    },
    {
      "inputs": [
        {
          "internalType": "address",
          "name": "to",
          "type": "address"
        },
        {
          "internalType": "uint256",
          "name": "tokenId",
          "type": "uint256"
        }
      ],
      "name": "approve",
      "outputs": [],
      "stateMutability": "nonpayable",
      "type": "function"
    },
    {
      "inputs": [
        {
          "internalType": "address",
          "name": "owner",
          "type": "address"
        }
      ],
      "name": "balanceOf",
      "outputs": [
        {
          "internalType": "uint256",
          "name": "",
          "type": "uint256"
        }
      ],
      "stateMutability": "view",
      "type": "function"
    },
    {
      "inputs": [],
      "name": "baseUri",
      "outputs": [
        {
          "internalType": "string",
          "name": "",
          "type": "string"
        }
      ],
      "stateMutability": "view",
      "type": "function"
    },
    {
      "inputs": [
        {
          "internalType": "uint256",
          "name": "tokenId",
          "type": "uint256"
        }
      ],
      "name": "getApproved",
      "outputs": [
        {
          "internalType": "address",
          "name": "",
          "type": "address"
        }
      ],
      "stateMutability": "view",
      "type": "function"
    },
    {
      "inputs": [
        {
          "internalType": "address",
          "name": "owner",
          "type": "address"
        },
        {
          "internalType": "address",
          "name": "operator",
          "type": "address"
        }
      ],
      "name": "isApprovedForAll",
      "outputs": [
        {
          "internalType": "bool",
          "name": "",
          "type": "bool"
        }
      ],
      "stateMutability": "view",
      "type": "function"
    },
    {
      "inputs": [],
      "name": "name",
      "outputs": [
        {
          "internalType": "string",
          "name": "",
          "type": "string"
        }
      ],
      "stateMutability": "view",
      "type": "function"
    },
    {
      "inputs": [
        {
          "internalType": "uint256",
          "name": "tokenId",
          "type": "uint256"
        }
      ],
      "name": "ownerOf",
      "outputs": [
        {
          "internalType": "address",
          "name": "",
          "type": "address"
        }
      ],
      "stateMutability": "view",
      "type": "function"
    },
    {
      "inputs": [
        {
          "internalType": "address",
          "name": "from",
          "type": "address"
        },
        {
          "internalType": "address",
          "name": "to",
          "type": "address"
        },
        {
          "internalType": "uint256",
          "name": "tokenId",
          "type": "uint256"
        }
      ],
      "name": "safeTransferFrom",
      "outputs": [],
      "stateMutability": "nonpayable",
      "type": "function"
    },
    {
      "inputs": [
        {
          "internalType": "address",
          "name": "from",
          "type": "address"
        },
        {
          "internalType": "address",
          "name": "to",
          "type": "address"
        },
        {
          "internalType": "uint256",
          "name": "tokenId",
          "type": "uint256"
        },
        {
          "internalType": "bytes",
          "name": "data",
          "type": "bytes"
        }
      ],
      "name": "safeTransferFrom",
      "outputs": [],
      "stateMutability": "nonpayable",
      "type": "function"
    },
    {
      "inputs": [
        {
          "internalType": "address",
          "name": "operator",
          "type": "address"
        },
        {
          "internalType": "bool",
          "name": "approved",
          "type": "bool"
        }
      ],
      "name": "setApprovalForAll",
      "outputs": [],
      "stateMutability": "nonpayable",
      "type": "function"
    },
    {
      "inputs": [
        {
          "internalType": "bytes4",
          "name": "interfaceId",
          "type": "bytes4"
        }
      ],
      "name": "supportsInterface",
      "outputs": [
        {
          "internalType": "bool",
          "name": "",
          "type": "bool"
        }
      ],
      "stateMutability": "view",
      "type": "function"
    },
    {
      "inputs": [],
      "name": "symbol",
      "outputs": [
        {
          "internalType": "string",
          "name": "",
          "type": "string"
        }
      ],
      "stateMutability": "view",
      "type": "function"
    },
    {
      "inputs": [
        {
          "internalType": "uint256",
          "name": "tokenId",
          "type": "uint256"
        }
      ],
      "name": "tokenURI",
      "outputs": [
        {
          "internalType": "string",
          "name": "",
          "type": "string"
        }
      ],
      "stateMutability": "view",
      "type": "function"
    },
    {
      "inputs": [
        {
          "internalType": "address",
          "name": "from",
          "type": "address"
        },
        {
          "internalType": "address",
          "name": "to",
          "type": "address"
        },
        {
          "internalType": "uint256",
          "name": "tokenId",
          "type": "uint256"
        }
      ],
      "name": "transferFrom",
      "outputs": [],
      "stateMutability": "nonpayable",
      "type": "function"
    }
  ],
  "transactionHash": "0x8d3344f42aa356f3d1260db225522e5e38ec38b3b36c274e7aca89847c64dc6d",
  "args": [
    "0xa7bAe8098dB66A7109a2f3793274fe49BC7e0860",
    "ipfs://bafybeigdnoopbzack5ndo62gd5pfhcjl6gk5e6jdpgap6xvdg76q6ixmhy/"
  ],
  "numDeployments": 1,
  "solcInputHash": "f1ee4736e13a25df36dab66c1e9451d7",
  "bytecode": "0x60806040523480156200001157600080fd5b5060405162003ff538038062003ff5833981810160405281019062000037919062000c22565b6040518060400160405280600881526020017f54686973497355730000000000000000000000000000000000000000000000008152506040518060400160405280600281526020017f55530000000000000000000000000000000000000000000000000000000000008152508160009081620000b4919062000ed3565b508060019081620000c6919062000ed3565b5050508060079081620000da919062000ed3565b5060006200019f838280620000ef9062000fe9565b93506040518060400160405280600781526020017f416c6c2d526f77000000000000000000000000000000000000000000000000008152506040518060400160405280601281526020017f416c6c206f6620557320696e206120726f7700000000000000000000000000008152506040518060400160405280600c81526020017f616c6c2d726f772e6a70656700000000000000000000000000000000000000008152506200032c60201b60201c565b62000261838280620001b19062000fe9565b93506040518060400160405280600781526020017f416c6c2d426564000000000000000000000000000000000000000000000000008152506040518060400160405280601081526020017f416c6c206f6620557320696e20626564000000000000000000000000000000008152506040518060400160405280600c81526020017f616c6c2d6265642e6a70656700000000000000000000000000000000000000008152506200032c60201b60201c565b62000323838280620002739062000fe9565b93506040518060400160405280600881526020017f416c6c2d506177730000000000000000000000000000000000000000000000008152506040518060400160405280601381526020017f416c6c206f6620557320776974682070617773000000000000000000000000008152506040518060400160405280600d81526020017f616c6c2d706177732e6a706567000000000000000000000000000000000000008152506200032c60201b60201c565b5050506200139b565b620003438585620003c360201b62000c831760201c565b60405180606001604052808481526020018381526020018281525060066000868152602001908152602001600020600082015181600001908162000388919062000ed3565b506020820151816001019081620003a0919062000ed3565b506040820151816002019081620003b8919062000ed3565b509050505050505050565b620003e5828260405180602001604052806000815250620003e960201b60201c565b5050565b620003fb83836200045760201b60201c565b6200041060008484846200069d60201b60201c565b62000452576040517f08c379a00000000000000000000000000000000000000000000000000000000081526004016200044990620010bd565b60405180910390fd5b505050565b600073ffffffffffffffffffffffffffffffffffffffff168273ffffffffffffffffffffffffffffffffffffffff1603620004c9576040517f08c379a0000000000000000000000000000000000000000000000000000000008152600401620004c0906200112f565b60405180910390fd5b620004da816200084660201b60201c565b156200051d576040517f08c379a00000000000000000000000000000000000000000000000000000000081526004016200051490620011a1565b60405180910390fd5b620005336000838360016200088f60201b60201c565b62000544816200084660201b60201c565b1562000587576040517f08c379a00000000000000000000000000000000000000000000000000000000081526004016200057e90620011a1565b60405180910390fd5b6001600360008473ffffffffffffffffffffffffffffffffffffffff1673ffffffffffffffffffffffffffffffffffffffff16815260200190815260200160002060008282540192505081905550816002600083815260200190815260200160002060006101000a81548173ffffffffffffffffffffffffffffffffffffffff021916908373ffffffffffffffffffffffffffffffffffffffff160217905550808273ffffffffffffffffffffffffffffffffffffffff16600073ffffffffffffffffffffffffffffffffffffffff167fddf252ad1be2c89b69c2b068fc378daa952ba7f163c4a11628f55a4df523b3ef60405160405180910390a462000699600083836001620009bc60201b60201c565b5050565b6000620006cb8473ffffffffffffffffffffffffffffffffffffffff16620009c260201b62000ca11760201c565b1562000839578373ffffffffffffffffffffffffffffffffffffffff1663150b7a02620006fd620009e560201b60201c565b8786866040518563ffffffff1660e01b815260040162000721949392919062001242565b6020604051808303816000875af19250505080156200076057506040513d601f19601f820116820180604052508101906200075d9190620012f3565b60015b620007e8573d806000811462000793576040519150601f19603f3d011682016040523d82523d6000602084013e62000798565b606091505b506000815103620007e0576040517f08c379a0000000000000000000000000000000000000000000000000000000008152600401620007d790620010bd565b60405180910390fd5b805181602001fd5b63150b7a0260e01b7bffffffffffffffffffffffffffffffffffffffffffffffffffffffff1916817bffffffffffffffffffffffffffffffffffffffffffffffffffffffff1916149150506200083e565b600190505b949350505050565b60008073ffffffffffffffffffffffffffffffffffffffff166200087083620009ed60201b60201c565b73ffffffffffffffffffffffffffffffffffffffff1614159050919050565b6001811115620009b657600073ffffffffffffffffffffffffffffffffffffffff168473ffffffffffffffffffffffffffffffffffffffff1614620009275780600360008673ffffffffffffffffffffffffffffffffffffffff1673ffffffffffffffffffffffffffffffffffffffff16815260200190815260200160002060008282546200091f919062001325565b925050819055505b600073ffffffffffffffffffffffffffffffffffffffff168373ffffffffffffffffffffffffffffffffffffffff1614620009b55780600360008573ffffffffffffffffffffffffffffffffffffffff1673ffffffffffffffffffffffffffffffffffffffff1681526020019081526020016000206000828254620009ad919062001360565b925050819055505b5b50505050565b50505050565b6000808273ffffffffffffffffffffffffffffffffffffffff163b119050919050565b600033905090565b60006002600083815260200190815260200160002060009054906101000a900473ffffffffffffffffffffffffffffffffffffffff169050919050565b6000604051905090565b600080fd5b600080fd5b600073ffffffffffffffffffffffffffffffffffffffff82169050919050565b600062000a6b8262000a3e565b9050919050565b62000a7d8162000a5e565b811462000a8957600080fd5b50565b60008151905062000a9d8162000a72565b92915050565b600080fd5b600080fd5b6000601f19601f8301169050919050565b7f4e487b7100000000000000000000000000000000000000000000000000000000600052604160045260246000fd5b62000af88262000aad565b810181811067ffffffffffffffff8211171562000b1a5762000b1962000abe565b5b80604052505050565b600062000b2f62000a2a565b905062000b3d828262000aed565b919050565b600067ffffffffffffffff82111562000b605762000b5f62000abe565b5b62000b6b8262000aad565b9050602081019050919050565b60005b8381101562000b9857808201518184015260208101905062000b7b565b60008484015250505050565b600062000bbb62000bb58462000b42565b62000b23565b90508281526020810184848401111562000bda5762000bd962000aa8565b5b62000be784828562000b78565b509392505050565b600082601f83011262000c075762000c0662000aa3565b5b815162000c1984826020860162000ba4565b91505092915050565b6000806040838503121562000c3c5762000c3b62000a34565b5b600062000c4c8582860162000a8c565b925050602083015167ffffffffffffffff81111562000c705762000c6f62000a39565b5b62000c7e8582860162000bef565b9150509250929050565b600081519050919050565b7f4e487b7100000000000000000000000000000000000000000000000000000000600052602260045260246000fd5b6000600282049050600182168062000cdb57607f821691505b60208210810362000cf15762000cf062000c93565b5b50919050565b60008190508160005260206000209050919050565b60006020601f8301049050919050565b600082821b905092915050565b60006008830262000d5b7fffffffffffffffffffffffffffffffffffffffffffffffffffffffffffffffff8262000d1c565b62000d67868362000d1c565b95508019841693508086168417925050509392505050565b6000819050919050565b6000819050919050565b600062000db462000dae62000da88462000d7f565b62000d89565b62000d7f565b9050919050565b6000819050919050565b62000dd08362000d93565b62000de862000ddf8262000dbb565b84845462000d29565b825550505050565b600090565b62000dff62000df0565b62000e0c81848462000dc5565b505050565b5b8181101562000e345762000e2860008262000df5565b60018101905062000e12565b5050565b601f82111562000e835762000e4d8162000cf7565b62000e588462000d0c565b8101602085101562000e68578190505b62000e8062000e778562000d0c565b83018262000e11565b50505b505050565b600082821c905092915050565b600062000ea86000198460080262000e88565b1980831691505092915050565b600062000ec3838362000e95565b9150826002028217905092915050565b62000ede8262000c88565b67ffffffffffffffff81111562000efa5762000ef962000abe565b5b62000f06825462000cc2565b62000f1382828562000e38565b600060209050601f83116001811462000f4b576000841562000f36578287015190505b62000f42858262000eb5565b86555062000fb2565b601f19841662000f5b8662000cf7565b60005b8281101562000f855784890151825560018201915060208501945060208101905062000f5e565b8683101562000fa5578489015162000fa1601f89168262000e95565b8355505b6001600288020188555050505b505050505050565b7f4e487b7100000000000000000000000000000000000000000000000000000000600052601160045260246000fd5b600062000ff68262000d7f565b91507fffffffffffffffffffffffffffffffffffffffffffffffffffffffffffffffff82036200102b576200102a62000fba565b5b600182019050919050565b600082825260208201905092915050565b7f4552433732313a207472616e7366657220746f206e6f6e20455243373231526560008201527f63656976657220696d706c656d656e7465720000000000000000000000000000602082015250565b6000620010a560328362001036565b9150620010b28262001047565b604082019050919050565b60006020820190508181036000830152620010d88162001096565b9050919050565b7f4552433732313a206d696e7420746f20746865207a65726f2061646472657373600082015250565b60006200111760208362001036565b91506200112482620010df565b602082019050919050565b600060208201905081810360008301526200114a8162001108565b9050919050565b7f4552433732313a20746f6b656e20616c7265616479206d696e74656400000000600082015250565b600062001189601c8362001036565b9150620011968262001151565b602082019050919050565b60006020820190508181036000830152620011bc816200117a565b9050919050565b620011ce8162000a5e565b82525050565b620011df8162000d7f565b82525050565b600081519050919050565b600082825260208201905092915050565b60006200120e82620011e5565b6200121a8185620011f0565b93506200122c81856020860162000b78565b620012378162000aad565b840191505092915050565b6000608082019050620012596000830187620011c3565b620012686020830186620011c3565b620012776040830185620011d4565b81810360608301526200128b818462001201565b905095945050505050565b60007fffffffff0000000000000000000000000000000000000000000000000000000082169050919050565b620012cd8162001296565b8114620012d957600080fd5b50565b600081519050620012ed81620012c2565b92915050565b6000602082840312156200130c576200130b62000a34565b5b60006200131c84828501620012dc565b91505092915050565b6000620013328262000d7f565b91506200133f8362000d7f565b92508282039050818111156200135a576200135962000fba565b5b92915050565b60006200136d8262000d7f565b91506200137a8362000d7f565b925082820190508082111562001395576200139462000fba565b5b92915050565b612c4a80620013ab6000396000f3fe608060405234801561001057600080fd5b50600436106100ea5760003560e01c806370a082311161008c578063a22cb46511610066578063a22cb4651461025d578063b88d4fde14610279578063c87b56dd14610295578063e985e9c5146102c5576100ea565b806370a08231146101f157806395d89b41146102215780639abc83201461023f576100ea565b8063095ea7b3116100c8578063095ea7b31461016d57806323b872dd1461018957806342842e0e146101a55780636352211e146101c1576100ea565b806301ffc9a7146100ef57806306fdde031461011f578063081812fc1461013d575b600080fd5b61010960048036038101906101049190611b08565b6102f5565b6040516101169190611b50565b60405180910390f35b6101276103d7565b6040516101349190611bfb565b60405180910390f35b61015760048036038101906101529190611c53565b610469565b6040516101649190611cc1565b60405180910390f35b61018760048036038101906101829190611d08565b6104af565b005b6101a3600480360381019061019e9190611d48565b6105c6565b005b6101bf60048036038101906101ba9190611d48565b610626565b005b6101db60048036038101906101d69190611c53565b610646565b6040516101e89190611cc1565b60405180910390f35b61020b60048036038101906102069190611d9b565b6106cc565b6040516102189190611dd7565b60405180910390f35b610229610783565b6040516102369190611bfb565b60405180910390f35b610247610815565b6040516102549190611bfb565b60405180910390f35b61027760048036038101906102729190611e1e565b6108a3565b005b610293600480360381019061028e9190611f93565b6108b9565b005b6102af60048036038101906102aa9190611c53565b61091b565b6040516102bc9190611bfb565b60405180910390f35b6102df60048036038101906102da9190612016565b610bef565b6040516102ec9190611b50565b60405180910390f35b60007f80ac58cd000000000000000000000000000000000000000000000000000000007bffffffffffffffffffffffffffffffffffffffffffffffffffffffff1916827bffffffffffffffffffffffffffffffffffffffffffffffffffffffff191614806103c057507f5b5e139f000000000000000000000000000000000000000000000000000000007bffffffffffffffffffffffffffffffffffffffffffffffffffffffff1916827bffffffffffffffffffffffffffffffffffffffffffffffffffffffff1916145b806103d057506103cf82610cc4565b5b9050919050565b6060600080546103e690612085565b80601f016020809104026020016040519081016040528092919081815260200182805461041290612085565b801561045f5780601f106104345761010080835404028352916020019161045f565b820191906000526020600020905b81548152906001019060200180831161044257829003601f168201915b5050505050905090565b600061047482610d2e565b6004600083815260200190815260200160002060009054906101000a900473ffffffffffffffffffffffffffffffffffffffff169050919050565b60006104ba82610646565b90508073ffffffffffffffffffffffffffffffffffffffff168373ffffffffffffffffffffffffffffffffffffffff160361052a576040517f08c379a000000000000000000000000000000000000000000000000000000000815260040161052190612128565b60405180910390fd5b8073ffffffffffffffffffffffffffffffffffffffff16610549610d79565b73ffffffffffffffffffffffffffffffffffffffff161480610578575061057781610572610d79565b610bef565b5b6105b7576040517f08c379a00000000000000000000000000000000000000000000000000000000081526004016105ae906121ba565b60405180910390fd5b6105c18383610d81565b505050565b6105d76105d1610d79565b82610e3a565b610616576040517f08c379a000000000000000000000000000000000000000000000000000000000815260040161060d9061224c565b60405180910390fd5b610621838383610ecf565b505050565b610641838383604051806020016040528060008152506108b9565b505050565b600080610652836111c8565b9050600073ffffffffffffffffffffffffffffffffffffffff168173ffffffffffffffffffffffffffffffffffffffff16036106c3576040517f08c379a00000000000000000000000000000000000000000000000000000000081526004016106ba906122b8565b60405180910390fd5b80915050919050565b60008073ffffffffffffffffffffffffffffffffffffffff168273ffffffffffffffffffffffffffffffffffffffff160361073c576040517f08c379a00000000000000000000000000000000000000000000000000000000081526004016107339061234a565b60405180910390fd5b600360008373ffffffffffffffffffffffffffffffffffffffff1673ffffffffffffffffffffffffffffffffffffffff168152602001908152602001600020549050919050565b60606001805461079290612085565b80601f01602080910402602001604051908101604052809291908181526020018280546107be90612085565b801561080b5780601f106107e05761010080835404028352916020019161080b565b820191906000526020600020905b8154815290600101906020018083116107ee57829003601f168201915b5050505050905090565b6007805461082290612085565b80601f016020809104026020016040519081016040528092919081815260200182805461084e90612085565b801561089b5780601f106108705761010080835404028352916020019161089b565b820191906000526020600020905b81548152906001019060200180831161087e57829003601f168201915b505050505081565b6108b56108ae610d79565b8383611205565b5050565b6108ca6108c4610d79565b83610e3a565b610909576040517f08c379a00000000000000000000000000000000000000000000000000000000081526004016109009061224c565b60405180910390fd5b61091584848484611371565b50505050565b606061092682610d2e565b60006007805461093590612085565b80601f016020809104026020016040519081016040528092919081815260200182805461096190612085565b80156109ae5780601f10610983576101008083540402835291602001916109ae565b820191906000526020600020905b81548152906001019060200180831161099157829003601f168201915b505050505090506000600660008581526020019081526020016000206040518060600160405290816000820180546109e590612085565b80601f0160208091040260200160405190810160405280929190818152602001828054610a1190612085565b8015610a5e5780601f10610a3357610100808354040283529160200191610a5e565b820191906000526020600020905b815481529060010190602001808311610a4157829003601f168201915b50505050508152602001600182018054610a7790612085565b80601f0160208091040260200160405190810160405280929190818152602001828054610aa390612085565b8015610af05780601f10610ac557610100808354040283529160200191610af0565b820191906000526020600020905b815481529060010190602001808311610ad357829003601f168201915b50505050508152602001600282018054610b0990612085565b80601f0160208091040260200160405190810160405280929190818152602001828054610b3590612085565b8015610b825780601f10610b5757610100808354040283529160200191610b82565b820191906000526020600020905b815481529060010190602001808311610b6557829003601f168201915b5050505050815250509050610bc781600001518260200151848460400151604051602001610bb394939291906125ba565b6040516020818303038152906040526113cd565b604051602001610bd7919061269c565b60405160208183030381529060405292505050919050565b6000600560008473ffffffffffffffffffffffffffffffffffffffff1673ffffffffffffffffffffffffffffffffffffffff16815260200190815260200160002060008373ffffffffffffffffffffffffffffffffffffffff1673ffffffffffffffffffffffffffffffffffffffff16815260200190815260200160002060009054906101000a900460ff16905092915050565b610c9d828260405180602001604052806000815250611530565b5050565b6000808273ffffffffffffffffffffffffffffffffffffffff163b119050919050565b60007f01ffc9a7000000000000000000000000000000000000000000000000000000007bffffffffffffffffffffffffffffffffffffffffffffffffffffffff1916827bffffffffffffffffffffffffffffffffffffffffffffffffffffffff1916149050919050565b610d378161158b565b610d76576040517f08c379a0000000000000000000000000000000000000000000000000000000008152600401610d6d906122b8565b60405180910390fd5b50565b600033905090565b816004600083815260200190815260200160002060006101000a81548173ffffffffffffffffffffffffffffffffffffffff021916908373ffffffffffffffffffffffffffffffffffffffff160217905550808273ffffffffffffffffffffffffffffffffffffffff16610df483610646565b73ffffffffffffffffffffffffffffffffffffffff167f8c5be1e5ebec7d5bd14f71427d1e84f3dd0314c0f7b2291e5b200ac8c7c3b92560405160405180910390a45050565b600080610e4683610646565b90508073ffffffffffffffffffffffffffffffffffffffff168473ffffffffffffffffffffffffffffffffffffffff161480610e885750610e878185610bef565b5b80610ec657508373ffffffffffffffffffffffffffffffffffffffff16610eae84610469565b73ffffffffffffffffffffffffffffffffffffffff16145b91505092915050565b8273ffffffffffffffffffffffffffffffffffffffff16610eef82610646565b73ffffffffffffffffffffffffffffffffffffffff1614610f45576040517f08c379a0000000000000000000000000000000000000000000000000000000008152600401610f3c90612730565b60405180910390fd5b600073ffffffffffffffffffffffffffffffffffffffff168273ffffffffffffffffffffffffffffffffffffffff1603610fb4576040517f08c379a0000000000000000000000000000000000000000000000000000000008152600401610fab906127c2565b60405180910390fd5b610fc183838360016115cc565b8273ffffffffffffffffffffffffffffffffffffffff16610fe182610646565b73ffffffffffffffffffffffffffffffffffffffff1614611037576040517f08c379a000000000000000000000000000000000000000000000000000000000815260040161102e90612730565b60405180910390fd5b6004600082815260200190815260200160002060006101000a81549073ffffffffffffffffffffffffffffffffffffffff02191690556001600360008573ffffffffffffffffffffffffffffffffffffffff1673ffffffffffffffffffffffffffffffffffffffff168152602001908152602001600020600082825403925050819055506001600360008473ffffffffffffffffffffffffffffffffffffffff1673ffffffffffffffffffffffffffffffffffffffff16815260200190815260200160002060008282540192505081905550816002600083815260200190815260200160002060006101000a81548173ffffffffffffffffffffffffffffffffffffffff021916908373ffffffffffffffffffffffffffffffffffffffff160217905550808273ffffffffffffffffffffffffffffffffffffffff168473ffffffffffffffffffffffffffffffffffffffff167fddf252ad1be2c89b69c2b068fc378daa952ba7f163c4a11628f55a4df523b3ef60405160405180910390a46111c383838360016116f2565b505050565b60006002600083815260200190815260200160002060009054906101000a900473ffffffffffffffffffffffffffffffffffffffff169050919050565b8173ffffffffffffffffffffffffffffffffffffffff168373ffffffffffffffffffffffffffffffffffffffff1603611273576040517f08c379a000000000000000000000000000000000000000000000000000000000815260040161126a9061282e565b60405180910390fd5b80600560008573ffffffffffffffffffffffffffffffffffffffff1673ffffffffffffffffffffffffffffffffffffffff16815260200190815260200160002060008473ffffffffffffffffffffffffffffffffffffffff1673ffffffffffffffffffffffffffffffffffffffff16815260200190815260200160002060006101000a81548160ff0219169083151502179055508173ffffffffffffffffffffffffffffffffffffffff168373ffffffffffffffffffffffffffffffffffffffff167f17307eab39ab6107e8899845ad3d59bd9653f200f220920489ca2b5937696c31836040516113649190611b50565b60405180910390a3505050565b61137c848484610ecf565b611388848484846116f8565b6113c7576040517f08c379a00000000000000000000000000000000000000000000000000000000081526004016113be906128c0565b60405180910390fd5b50505050565b606060008251036113ef5760405180602001604052806000815250905061152b565b6000604051806060016040528060408152602001612bd5604091399050600060036002855161141e919061290f565b6114289190612972565b600461143491906129a3565b67ffffffffffffffff81111561144d5761144c611e68565b5b6040519080825280601f01601f19166020018201604052801561147f5781602001600182028036833780820191505090505b509050600182016020820185865187015b808210156114eb576003820191508151603f8160121c168501518453600184019350603f81600c1c168501518453600184019350603f8160061c168501518453600184019350603f8116850151845360018401935050611490565b5050600386510660018114611507576002811461151a57611522565b603d6001830353603d6002830353611522565b603d60018303535b50505080925050505b919050565b61153a838361187f565b61154760008484846116f8565b611586576040517f08c379a000000000000000000000000000000000000000000000000000000000815260040161157d906128c0565b60405180910390fd5b505050565b60008073ffffffffffffffffffffffffffffffffffffffff166115ad836111c8565b73ffffffffffffffffffffffffffffffffffffffff1614159050919050565b60018111156116ec57600073ffffffffffffffffffffffffffffffffffffffff168473ffffffffffffffffffffffffffffffffffffffff16146116605780600360008673ffffffffffffffffffffffffffffffffffffffff1673ffffffffffffffffffffffffffffffffffffffff168152602001908152602001600020600082825461165891906129e5565b925050819055505b600073ffffffffffffffffffffffffffffffffffffffff168373ffffffffffffffffffffffffffffffffffffffff16146116eb5780600360008573ffffffffffffffffffffffffffffffffffffffff1673ffffffffffffffffffffffffffffffffffffffff16815260200190815260200160002060008282546116e3919061290f565b925050819055505b5b50505050565b50505050565b60006117198473ffffffffffffffffffffffffffffffffffffffff16610ca1565b15611872578373ffffffffffffffffffffffffffffffffffffffff1663150b7a02611742610d79565b8786866040518563ffffffff1660e01b81526004016117649493929190612a6e565b6020604051808303816000875af19250505080156117a057506040513d601f19601f8201168201806040525081019061179d9190612acf565b60015b611822573d80600081146117d0576040519150601f19603f3d011682016040523d82523d6000602084013e6117d5565b606091505b50600081510361181a576040517f08c379a0000000000000000000000000000000000000000000000000000000008152600401611811906128c0565b60405180910390fd5b805181602001fd5b63150b7a0260e01b7bffffffffffffffffffffffffffffffffffffffffffffffffffffffff1916817bffffffffffffffffffffffffffffffffffffffffffffffffffffffff191614915050611877565b600190505b949350505050565b600073ffffffffffffffffffffffffffffffffffffffff168273ffffffffffffffffffffffffffffffffffffffff16036118ee576040517f08c379a00000000000000000000000000000000000000000000000000000000081526004016118e590612b48565b60405180910390fd5b6118f78161158b565b15611937576040517f08c379a000000000000000000000000000000000000000000000000000000000815260040161192e90612bb4565b60405180910390fd5b6119456000838360016115cc565b61194e8161158b565b1561198e576040517f08c379a000000000000000000000000000000000000000000000000000000000815260040161198590612bb4565b60405180910390fd5b6001600360008473ffffffffffffffffffffffffffffffffffffffff1673ffffffffffffffffffffffffffffffffffffffff16815260200190815260200160002060008282540192505081905550816002600083815260200190815260200160002060006101000a81548173ffffffffffffffffffffffffffffffffffffffff021916908373ffffffffffffffffffffffffffffffffffffffff160217905550808273ffffffffffffffffffffffffffffffffffffffff16600073ffffffffffffffffffffffffffffffffffffffff167fddf252ad1be2c89b69c2b068fc378daa952ba7f163c4a11628f55a4df523b3ef60405160405180910390a4611a986000838360016116f2565b5050565b6000604051905090565b600080fd5b600080fd5b60007fffffffff0000000000000000000000000000000000000000000000000000000082169050919050565b611ae581611ab0565b8114611af057600080fd5b50565b600081359050611b0281611adc565b92915050565b600060208284031215611b1e57611b1d611aa6565b5b6000611b2c84828501611af3565b91505092915050565b60008115159050919050565b611b4a81611b35565b82525050565b6000602082019050611b656000830184611b41565b92915050565b600081519050919050565b600082825260208201905092915050565b60005b83811015611ba5578082015181840152602081019050611b8a565b60008484015250505050565b6000601f19601f8301169050919050565b6000611bcd82611b6b565b611bd78185611b76565b9350611be7818560208601611b87565b611bf081611bb1565b840191505092915050565b60006020820190508181036000830152611c158184611bc2565b905092915050565b6000819050919050565b611c3081611c1d565b8114611c3b57600080fd5b50565b600081359050611c4d81611c27565b92915050565b600060208284031215611c6957611c68611aa6565b5b6000611c7784828501611c3e565b91505092915050565b600073ffffffffffffffffffffffffffffffffffffffff82169050919050565b6000611cab82611c80565b9050919050565b611cbb81611ca0565b82525050565b6000602082019050611cd66000830184611cb2565b92915050565b611ce581611ca0565b8114611cf057600080fd5b50565b600081359050611d0281611cdc565b92915050565b60008060408385031215611d1f57611d1e611aa6565b5b6000611d2d85828601611cf3565b9250506020611d3e85828601611c3e565b9150509250929050565b600080600060608486031215611d6157611d60611aa6565b5b6000611d6f86828701611cf3565b9350506020611d8086828701611cf3565b9250506040611d9186828701611c3e565b9150509250925092565b600060208284031215611db157611db0611aa6565b5b6000611dbf84828501611cf3565b91505092915050565b611dd181611c1d565b82525050565b6000602082019050611dec6000830184611dc8565b92915050565b611dfb81611b35565b8114611e0657600080fd5b50565b600081359050611e1881611df2565b92915050565b60008060408385031215611e3557611e34611aa6565b5b6000611e4385828601611cf3565b9250506020611e5485828601611e09565b9150509250929050565b600080fd5b600080fd5b7f4e487b7100000000000000000000000000000000000000000000000000000000600052604160045260246000fd5b611ea082611bb1565b810181811067ffffffffffffffff82111715611ebf57611ebe611e68565b5b80604052505050565b6000611ed2611a9c565b9050611ede8282611e97565b919050565b600067ffffffffffffffff821115611efe57611efd611e68565b5b611f0782611bb1565b9050602081019050919050565b82818337600083830152505050565b6000611f36611f3184611ee3565b611ec8565b905082815260208101848484011115611f5257611f51611e63565b5b611f5d848285611f14565b509392505050565b600082601f830112611f7a57611f79611e5e565b5b8135611f8a848260208601611f23565b91505092915050565b60008060008060808587031215611fad57611fac611aa6565b5b6000611fbb87828801611cf3565b9450506020611fcc87828801611cf3565b9350506040611fdd87828801611c3e565b925050606085013567ffffffffffffffff811115611ffe57611ffd611aab565b5b61200a87828801611f65565b91505092959194509250565b6000806040838503121561202d5761202c611aa6565b5b600061203b85828601611cf3565b925050602061204c85828601611cf3565b9150509250929050565b7f4e487b7100000000000000000000000000000000000000000000000000000000600052602260045260246000fd5b6000600282049050600182168061209d57607f821691505b6020821081036120b0576120af612056565b5b50919050565b7f4552433732313a20617070726f76616c20746f2063757272656e74206f776e6560008201527f7200000000000000000000000000000000000000000000000000000000000000602082015250565b6000612112602183611b76565b915061211d826120b6565b604082019050919050565b6000602082019050818103600083015261214181612105565b9050919050565b7f4552433732313a20617070726f76652063616c6c6572206973206e6f7420746f60008201527f6b656e206f776e6572206f7220617070726f76656420666f7220616c6c000000602082015250565b60006121a4603d83611b76565b91506121af82612148565b604082019050919050565b600060208201905081810360008301526121d381612197565b9050919050565b7f4552433732313a2063616c6c6572206973206e6f7420746f6b656e206f776e6560008201527f72206f7220617070726f76656400000000000000000000000000000000000000602082015250565b6000612236602d83611b76565b9150612241826121da565b604082019050919050565b6000602082019050818103600083015261226581612229565b9050919050565b7f4552433732313a20696e76616c696420746f6b656e2049440000000000000000600082015250565b60006122a2601883611b76565b91506122ad8261226c565b602082019050919050565b600060208201905081810360008301526122d181612295565b9050919050565b7f4552433732313a2061646472657373207a65726f206973206e6f74206120766160008201527f6c6964206f776e65720000000000000000000000000000000000000000000000602082015250565b6000612334602983611b76565b915061233f826122d8565b604082019050919050565b6000602082019050818103600083015261236381612327565b9050919050565b600081905092915050565b7f7b00000000000000000000000000000000000000000000000000000000000000600082015250565b60006123ab60018361236a565b91506123b682612375565b600182019050919050565b7f226e616d65223a20220000000000000000000000000000000000000000000000600082015250565b60006123f760098361236a565b9150612402826123c1565b600982019050919050565b600061241882611b6b565b612422818561236a565b9350612432818560208601611b87565b80840191505092915050565b7f222c200000000000000000000000000000000000000000000000000000000000600082015250565b600061247460038361236a565b915061247f8261243e565b600382019050919050565b7f226465736372697074696f6e223a202200000000000000000000000000000000600082015250565b60006124c060108361236a565b91506124cb8261248a565b601082019050919050565b7f22696d616765223a202200000000000000000000000000000000000000000000600082015250565b600061250c600a8361236a565b9150612517826124d6565b600a82019050919050565b7f2200000000000000000000000000000000000000000000000000000000000000600082015250565b600061255860018361236a565b915061256382612522565b600182019050919050565b7f7d00000000000000000000000000000000000000000000000000000000000000600082015250565b60006125a460018361236a565b91506125af8261256e565b600182019050919050565b60006125c58261239e565b91506125d0826123ea565b91506125dc828761240d565b91506125e782612467565b91506125f2826124b3565b91506125fe828661240d565b915061260982612467565b9150612614826124ff565b9150612620828561240d565b915061262c828461240d565b91506126378261254b565b915061264282612597565b915081905095945050505050565b7f646174613a6170706c69636174696f6e2f6a736f6e3b6261736536342c000000600082015250565b6000612686601d8361236a565b915061269182612650565b601d82019050919050565b60006126a782612679565b91506126b3828461240d565b915081905092915050565b7f4552433732313a207472616e736665722066726f6d20696e636f72726563742060008201527f6f776e6572000000000000000000000000000000000000000000000000000000602082015250565b600061271a602583611b76565b9150612725826126be565b604082019050919050565b600060208201905081810360008301526127498161270d565b9050919050565b7f4552433732313a207472616e7366657220746f20746865207a65726f2061646460008201527f7265737300000000000000000000000000000000000000000000000000000000602082015250565b60006127ac602483611b76565b91506127b782612750565b604082019050919050565b600060208201905081810360008301526127db8161279f565b9050919050565b7f4552433732313a20617070726f766520746f2063616c6c657200000000000000600082015250565b6000612818601983611b76565b9150612823826127e2565b602082019050919050565b600060208201905081810360008301526128478161280b565b9050919050565b7f4552433732313a207472616e7366657220746f206e6f6e20455243373231526560008201527f63656976657220696d706c656d656e7465720000000000000000000000000000602082015250565b60006128aa603283611b76565b91506128b58261284e565b604082019050919050565b600060208201905081810360008301526128d98161289d565b9050919050565b7f4e487b7100000000000000000000000000000000000000000000000000000000600052601160045260246000fd5b600061291a82611c1d565b915061292583611c1d565b925082820190508082111561293d5761293c6128e0565b5b92915050565b7f4e487b7100000000000000000000000000000000000000000000000000000000600052601260045260246000fd5b600061297d82611c1d565b915061298883611c1d565b92508261299857612997612943565b5b828204905092915050565b60006129ae82611c1d565b91506129b983611c1d565b92508282026129c781611c1d565b915082820484148315176129de576129dd6128e0565b5b5092915050565b60006129f082611c1d565b91506129fb83611c1d565b9250828203905081811115612a1357612a126128e0565b5b92915050565b600081519050919050565b600082825260208201905092915050565b6000612a4082612a19565b612a4a8185612a24565b9350612a5a818560208601611b87565b612a6381611bb1565b840191505092915050565b6000608082019050612a836000830187611cb2565b612a906020830186611cb2565b612a9d6040830185611dc8565b8181036060830152612aaf8184612a35565b905095945050505050565b600081519050612ac981611adc565b92915050565b600060208284031215612ae557612ae4611aa6565b5b6000612af384828501612aba565b91505092915050565b7f4552433732313a206d696e7420746f20746865207a65726f2061646472657373600082015250565b6000612b32602083611b76565b9150612b3d82612afc565b602082019050919050565b60006020820190508181036000830152612b6181612b25565b9050919050565b7f4552433732313a20746f6b656e20616c7265616479206d696e74656400000000600082015250565b6000612b9e601c83611b76565b9150612ba982612b68565b602082019050919050565b60006020820190508181036000830152612bcd81612b91565b905091905056fe4142434445464748494a4b4c4d4e4f505152535455565758595a6162636465666768696a6b6c6d6e6f707172737475767778797a303132333435363738392b2fa264697066735822122039ab3f34629855c978e874c5e29cf848434df3688ad3207dbddd18cadd82f32764736f6c63430008110033",
  "devdoc": {
    "author": "suiiii",
    "kind": "dev",
    "methods": {
      "approve(address,uint256)": {
        "details": "See {IERC721-approve}."
      },
      "balanceOf(address)": {
        "details": "See {IERC721-balanceOf}."
      },
      "getApproved(uint256)": {
        "details": "See {IERC721-getApproved}."
      },
      "isApprovedForAll(address,address)": {
        "details": "See {IERC721-isApprovedForAll}."
      },
      "name()": {
        "details": "See {IERC721Metadata-name}."
      },
      "ownerOf(uint256)": {
        "details": "See {IERC721-ownerOf}."
      },
      "safeTransferFrom(address,address,uint256)": {
        "details": "See {IERC721-safeTransferFrom}."
      },
      "safeTransferFrom(address,address,uint256,bytes)": {
        "details": "See {IERC721-safeTransferFrom}."
      },
      "setApprovalForAll(address,bool)": {
        "details": "See {IERC721-setApprovalForAll}."
      },
      "supportsInterface(bytes4)": {
        "details": "See {IERC165-supportsInterface}."
      },
      "symbol()": {
        "details": "See {IERC721Metadata-symbol}."
      },
      "tokenURI(uint256)": {
        "details": "See {IERC721Metadata-tokenURI}."
      },
      "transferFrom(address,address,uint256)": {
        "details": "See {IERC721-transferFrom}."
      }
    },
    "title": "ThisIsUs NFT",
    "version": 1
  },
  "userdoc": {
    "kind": "user",
    "methods": {},
    "notice": "Simple profile picture NFT for fun",
    "version": 1
  },
  "storageLayout": {
    "storage": [
      {
        "astId": 25,
        "contract": "contracts/ThisIsUs.sol:ThisIsUs",
        "label": "_name",
        "offset": 0,
        "slot": "0",
        "type": "t_string_storage"
      },
      {
        "astId": 27,
        "contract": "contracts/ThisIsUs.sol:ThisIsUs",
        "label": "_symbol",
        "offset": 0,
        "slot": "1",
        "type": "t_string_storage"
      },
      {
        "astId": 31,
        "contract": "contracts/ThisIsUs.sol:ThisIsUs",
        "label": "_owners",
        "offset": 0,
        "slot": "2",
        "type": "t_mapping(t_uint256,t_address)"
      },
      {
        "astId": 35,
        "contract": "contracts/ThisIsUs.sol:ThisIsUs",
        "label": "_balances",
        "offset": 0,
        "slot": "3",
        "type": "t_mapping(t_address,t_uint256)"
      },
      {
        "astId": 39,
        "contract": "contracts/ThisIsUs.sol:ThisIsUs",
        "label": "_tokenApprovals",
        "offset": 0,
        "slot": "4",
        "type": "t_mapping(t_uint256,t_address)"
      },
      {
        "astId": 45,
        "contract": "contracts/ThisIsUs.sol:ThisIsUs",
        "label": "_operatorApprovals",
        "offset": 0,
        "slot": "5",
        "type": "t_mapping(t_address,t_mapping(t_address,t_bool))"
      },
      {
        "astId": 2601,
        "contract": "contracts/ThisIsUs.sol:ThisIsUs",
        "label": "_tokenDetails",
        "offset": 0,
        "slot": "6",
        "type": "t_mapping(t_uint256,t_struct(TokenDetails)2596_storage)"
      },
      {
        "astId": 2603,
        "contract": "contracts/ThisIsUs.sol:ThisIsUs",
        "label": "baseUri",
        "offset": 0,
        "slot": "7",
        "type": "t_string_storage"
      }
    ],
    "types": {
      "t_address": {
        "encoding": "inplace",
        "label": "address",
        "numberOfBytes": "20"
      },
      "t_bool": {
        "encoding": "inplace",
        "label": "bool",
        "numberOfBytes": "1"
      },
      "t_mapping(t_address,t_bool)": {
        "encoding": "mapping",
        "key": "t_address",
        "label": "mapping(address => bool)",
        "numberOfBytes": "32",
        "value": "t_bool"
      },
      "t_mapping(t_address,t_mapping(t_address,t_bool))": {
        "encoding": "mapping",
        "key": "t_address",
        "label": "mapping(address => mapping(address => bool))",
        "numberOfBytes": "32",
        "value": "t_mapping(t_address,t_bool)"
      },
      "t_mapping(t_address,t_uint256)": {
        "encoding": "mapping",
        "key": "t_address",
        "label": "mapping(address => uint256)",
        "numberOfBytes": "32",
        "value": "t_uint256"
      },
      "t_mapping(t_uint256,t_address)": {
        "encoding": "mapping",
        "key": "t_uint256",
        "label": "mapping(uint256 => address)",
        "numberOfBytes": "32",
        "value": "t_address"
      },
      "t_mapping(t_uint256,t_struct(TokenDetails)2596_storage)": {
        "encoding": "mapping",
        "key": "t_uint256",
        "label": "mapping(uint256 => struct ThisIsUs.TokenDetails)",
        "numberOfBytes": "32",
        "value": "t_struct(TokenDetails)2596_storage"
      },
      "t_string_storage": {
        "encoding": "bytes",
        "label": "string",
        "numberOfBytes": "32"
      },
      "t_struct(TokenDetails)2596_storage": {
        "encoding": "inplace",
        "label": "struct ThisIsUs.TokenDetails",
        "members": [
          {
            "astId": 2591,
            "contract": "contracts/ThisIsUs.sol:ThisIsUs",
            "label": "name",
            "offset": 0,
            "slot": "0",
            "type": "t_string_storage"
          },
          {
            "astId": 2593,
            "contract": "contracts/ThisIsUs.sol:ThisIsUs",
            "label": "description",
            "offset": 0,
            "slot": "1",
            "type": "t_string_storage"
          },
          {
            "astId": 2595,
            "contract": "contracts/ThisIsUs.sol:ThisIsUs",
            "label": "fileName",
            "offset": 0,
            "slot": "2",
            "type": "t_string_storage"
          }
        ],
        "numberOfBytes": "96"
      },
      "t_uint256": {
        "encoding": "inplace",
        "label": "uint256",
        "numberOfBytes": "32"
      }
    }
  }
}